:060000000A128A110E280D
:10000800FE00030EF2000408F3000A08F4000A12C6
:100018008A11B42B0A128A11112883136130FD004A
:100028000530FE004B30FF00513084000A128A115F
:100038002A250A128A113F30840051300A128A1187
:100048007F250A128A11F80183010A128A112C28C5
:100058000A128A1139250A128A110A128A11872569
:100068000A128A110A128A1117230A128A110A120D
:100078008A118B210A128A110A128A118E250A12F4
:100088008A110A128A11D6240A128A110A128A11AE
:1000980010250A128A11831203139F185428552811
:1000A80071281F0CBA003A0C0F390A3A031D5D2853
:1000B8005E2863281F08C33930389F0067281F0847
:1000C800C33928389F000F3083120313BA00BA0BC4
:1000D8006B286E28831203139F144B080A128A1187
:1000E80061240A128A11831203132D08CD002C08EB
:1000F800CC0045080A128A1161240A128A11831257
:1001080003132D08C7002C08C6004D08AD004C0885
:10011800AC004E30BA003A08AE004F30BB003B0886
:10012800AF005030BC003C08B0000A128A115E22B1
:100138000A128A11831203134708AD004608AC005F
:100148004830BA003A08AE004930BB003B08AF005F
:100158004A30BC003C08B0000A128A115E220A121A
:100168008A11831203133F08BA00BB013A08AC0096
:100178003B08AD004230BC003C08AE004330BD0037
:100188003D08AF004430BE003E08B0000A128A1194
:100198005E220A128A11F70101300A128A11B52467
:1001A8000A128A11831203134E08303E0A128A116A
:1001B8005B250A128A11023083120313BA003A0827
:1001C800F70001300A128A11B5240A128A11831223
:1001D80003134F08303E0A128A115B250A128A114E
:1001E800033083120313BA003A08F70001300A12E9
:1001F8008A11B5240A128A11831203135008303E5B
:100208000A128A115B250A128A1106308312031317
:10021800BA003A08F70001300A128A11B5240A1206
:100228008A11831203134808303E0A128A115B258B
:100238000A128A11083083120313BA003A08F70029
:1002480001300A128A11B5240A128A118312031383
:100258004908303E0A128A115B250A128A110930B0
:1002680083120313BA003A08F70001300A128A1100
:10027800B5240A128A11831203134A08303E0A125F
:100288008A115B250A128A110D3083120313BA00F2
:100298003A08F70001300A128A11B5240A128A11A5
:1002A800831203134208303E0A128A115B250A1290
:1002B8008A110E3083120313BA003A08F70001308E
:1002C8000A128A11B5240A128A11831203134308E9
:1002D800303E0A128A115B250A128A110F308312E6
:1002E8000313BA003A08F70001300A128A11B5243C
:1002F8000A128A11831203134408303E0A128A1123
:100308005B250A128A114F280A128A110E282A30F0
:100318008400513083120313A6000408A70010308C
:10032800A8002608840083130008A900A60A270845
:10033800840029088000A70AA80B9529F701F70A65
:1003480000300A128A11B5240A128A112A300A12B8
:100358008A1134240A128A11F701F70A01300A12A5
:100368008A11B5240A128A112E300A128A115B25C5
:100378000A128A11043083120313A6002608F70014
:1003880001300A128A11B5240A128A1156300A124B
:100398008A115B250A128A11073083120313A600FB
:1003A8002608F70001300A128A11B5240A128A11A8
:1003B8002E300A128A115B250A128A110A3083121A
:1003C8000313A6002608F70001300A128A11B52483
:1003D8000A128A1156300A128A115B250A128A11EA
:1003E800080083120313A901A51FFB29FC29032A6E
:1003F800A409A509A40A0319A50AA901A90AA71FFE
:10040800062A072A102AA609A709A60A0319A70A6D
:100418000130F7007708A906AA01AB0124082504D2
:100428000319172A182A4F2AA801A80A262A0130D0
:100438000310A40DA50DFF3E031D1C2A0130F70073
:100448007708A807A51F292A2A2A1B2A0130031082
:10045800AA0DAB0DFF3E031D2B2A25082702031DFD
:10046800372A24082602031C3A2A3B2A422A24084F
:10047800A6022508031CA703A7022A1401300310AB
:10048800A50CA40CFF3E031D432A0130A802031D3E
:100498004E2A4F2A2A2A29080319532A542A592A44
:1004A800AA09AB09AA0A0319AB0A2B08A5002A084E
:1004B800A4000800643083120313A0000030A100D8
:1004C8002D08A3002C08A2000A128A116E230A1212
:1004D8008A11831203132008B1002E088400310802
:1004E800831380006430A0000030A1002D08A30011
:1004F8002C08A2000A128A11F8230A128A11831200
:1005080003132008B1003108B4000A30A4000030F9
:10051800A5003408B100B2013108A6003208A700CE
:100528000A128A11F5210A128A1183120313240868
:10053800B3002F0884003308831380000A30A0001A
:100548000030A1003408B100B2013108A20032081D
:10055800A3000A128A11BC220A128A1183120313F9
:100568002008B30030088400330883138000080093
:10057800F70183120313A31FC22AC32ACA2AA20996
:10058800A309A20A0319A30AF701F70AA11FCD2A92
:10059800CE2AD32AA009A109A00A0319A10A200872
:1005A80021040319D82AD92A082BF601F60AE72AC2
:1005B80001300310A00DA10DFF3E031DDD2A0130FF
:1005C800F5007508F607A11FEA2AEB2ADC2A21089C
:1005D8002302031DF12A20082202031CF42AF52A0B
:1005E800FB2A2008A2022108031CA303A30201304E
:1005F8000310A10CA00CFF3E031DFC2A0130F602DB
:10060800031D072B082BEB2A770803190C2B0D2B3E
:10061800122BA209A309A20A0319A30A2308A100FD
:100628002208A00008008312031307108710850111
:10063800153083120313A100C530A000A00B222B94
:10064800A10B222B272B30300A128A1167250A1298
:100658008A11073083120313A1007C30A000A00B7D
:10066800332BA10B332B000030300A128A11672577
:100678000A128A11413083120313A000A00B422BE7
:10068800452B30300A128A1167250A128A11063062
:1006980083120313A1002F30A000A00B512BA10B34
:1006A800512B562B38300A128A1167250A128A11E3
:1006B800063083120313A1002F30A000A00B622B79
:1006C800A10B622B672B0C300A128A1167250A12BC
:1006D8008A11080083120313A501A601200821042A
:1006E8000319772B782BAF2BA401A40A862B013092
:1006F8000310A00DA10DFF3E031D7C2B0130F5005A
:100708007508A407A11F892B8A2B7B2B01300310A6
:10071800A50DA60DFF3E031D8B2B21082302031DEB
:10072800972B20082202031C9A2B9B2BA22B200814
:10073800A2022108031CA303A302251401300310FD
:10074800A10CA00CFF3E031DA32B0130A402031D26
:10075800AE2BAF2B8A2B2608A1002508A000080085
:10076800831203130C1FB92BBA2BCD2B1F0CF000CF
:10077800700C0F390A3A031DC22BC32BC82B1E0855
:10078800F0007008C500CC2B1E08F0007008CB00E4
:100798000C138C1ED02BD12BEF2B1A08F0007008ED
:1007A800F800DE2B0130F0007008BF07EE2B013097
:1007B800BF02EE2B7808F000F1017108003A031926
:1007C800E62BEE2B70082B3A0319D62B063A0319A1
:1007D800DB2BEE2B8C1274088A0073088400720ECF
:1007E8008300FE0E7E0E09008312031320082104E5
:1007F8000319FF2B002C2F2CF601F60A0E2C0130C2
:100808000310A00DA10DFF3E031D042C0130F500BF
:100818007508F607A11F112C122C032C210823029E
:10082800031D182C20082202031C1B2C1C2C222C14
:100838002008A2022108031CA303A302013003100D
:10084800A10CA00CFF3E031D232C0130F602031D52
:100858002E2C2F2C122C2308A1002208A0000800FF
:1008680083120313A400A5014B2C25082407A2001A
:1008780022088400831300080A128A115B250A12D1
:100888008A11013083120313A2002208A507240845
:100898000A128A11F5240A128A11831203132508F1
:1008A800A200A30176082302031D5C2C750822020E
:1008B800031C5F2C602C392C080083120313B00032
:1008C8003330A4000030A5003008AE00AF012E0878
:1008D800A0002F08A1006430A2000030A3000A1273
:1008E8008A118E240A128A11831203132108A70081
:1008F8002008A6000A128A11F5210A128A11831209
:1009080003132508B2002408B1003208AD003108ED
:10091800AC000800F501F60183120313201C952C86
:10092800962C9C2C2208F5070318F60A2308F607CC
:1009380001300310A20DA30DFF3E031D9D2C0130B5
:100948000310A10CA00CFF3E031DA42C20082104B9
:10095800031DAF2CB02C902C7608A1007508A000C0
:10096800080083120313A2008030A0002008A3000F
:100978002208A00005300310A00DFF3E031DBF2C68
:100988000310200DA1002108A200230822047704E7
:10099800A0002008A30023080A128A1167250A125A
:1009A8008A110800831603130C17831203130C1300
:1009B800831603139F131F129F12831203131F081A
:1009C8003F3940389F001F08C33928389F001F143B
:1009D8001030F500F50BEE2C0000831203139F1462
:1009E800080083120313A0002008F7007708A1006D
:1009F800012D0130F7007708A1072108840083132F
:100A08000008031D082D092DFD2C20082102F500E2
:100A1800F601F51BF6030800831603139A01193033
:100A280099001812181583160317871183120313D8
:100A3800181398171816831603138C1683120313AA
:100A48008C1208007E088A007F0882000A128A1128
:100A580026250A128A118000840A04087D060319D3
:100A68000034FF0A0319FE0A2A2D8316031788018A
:100A78001430890083160313850103308600803003
:100A88008700831203138501860187010800533408
:100A980031343A34203420342034533432343A3424
:100AA800203420342034533433343A340034F600BC
:100AB800831203130714760885000A128A11732516
:100AC8000A128A110800F600831203130710760829
:100AD80085000A128A1173250A128A1108008312E6
:100AE80003138714A630F500F50B782D0000831248
:100AF80003138710080064008001840A04060319A0
:100B080000340406802D831603130F178F160F1257
:0A0B18000F1408008B170B170800DC
:04400E00D420FF3F7C
:00000001FF
